{
  "contractName": "Adoption",
  "abi": [
    {
      "constant": true,
      "inputs": [
        {
          "name": "",
          "type": "uint256"
        }
      ],
      "name": "adopters",
      "outputs": [
        {
          "name": "",
          "type": "address"
        }
      ],
      "payable": false,
      "stateMutability": "view",
      "type": "function"
    },
    {
      "constant": false,
      "inputs": [
        {
          "name": "petId",
          "type": "uint256"
        }
      ],
      "name": "adopt",
      "outputs": [
        {
          "name": "",
          "type": "uint256"
        }
      ],
      "payable": false,
      "stateMutability": "nonpayable",
      "type": "function"
    },
    {
      "constant": true,
      "inputs": [],
      "name": "getAdopters",
      "outputs": [
        {
          "name": "",
          "type": "address[16]"
        }
      ],
      "payable": false,
      "stateMutability": "view",
      "type": "function"
    }
  ],
  "bytecode": "0x608060405234801561001057600080fd5b506102d8806100206000396000f300608060405260043610610057576000357c0100000000000000000000000000000000000000000000000000000000900463ffffffff1680633de4eb171461005c57806343ae80d3146100af5780638588b2c51461011c575b600080fd5b34801561006857600080fd5b5061007161015d565b6040518082601060200280838360005b8381101561009c578082015181840152602081019050610081565b5050505090500191505060405180910390f35b3480156100bb57600080fd5b506100da600480360381019080803590602001909291905050506101de565b604051808273ffffffffffffffffffffffffffffffffffffffff1673ffffffffffffffffffffffffffffffffffffffff16815260200191505060405180910390f35b34801561012857600080fd5b5061014760048036038101908080359060200190929190505050610213565b6040518082815260200191505060405180910390f35b610165610288565b60006010806020026040519081016040528092919082601080156101d4576020028201915b8160009054906101000a900473ffffffffffffffffffffffffffffffffffffffff1673ffffffffffffffffffffffffffffffffffffffff168152602001906001019080831161018a575b5050505050905090565b6000816010811015156101ed57fe5b016000915054906101000a900473ffffffffffffffffffffffffffffffffffffffff1681565b60008082101580156102265750600f8211155b151561023157600080fd5b3360008360108110151561024157fe5b0160006101000a81548173ffffffffffffffffffffffffffffffffffffffff021916908373ffffffffffffffffffffffffffffffffffffffff160217905550819050919050565b610200604051908101604052806010906020820280388339808201915050905050905600a165627a7a72305820e260d9a34908e2db46352ba50509e1212787c7431e5847dc5d42fd7488f3bcac0029",
  "source": "pragma solidity ^0.4.17;\n// pragma command means: additional information that only the compiler cares about\n\ncontract Adoption {\n    /**\n    * Solidity is statically-typed language. Data types must be defined.\n    * Solidity has a unique type called an address.\n    * Addresses are Ethereum addresses, stored as 20 byte values.\n    * Every account and smart contract on the Ethereum blockchain has an address and can send and receive Ether to and from this address.\n    */\n\n    /**\n    * Defined a single variable: adopters.\n    * It's fixed array of addresses with a length of 16.\n    */\n    address[16] public adopters;\n\n    /**\n    * @notice Adopting a pet\n    * @dev dec types of both function params and output must be defined.\n    * @param petId Integer\n    * @return petId Integer\n    */\n    function adopt(uint petId) public returns (uint) {\n        // Checking to make sure petId is in range of our adopters array.\n        require(petId >= 0 && petId <= 15);\n\n        // If ID is range, we then add the address that made the call to our adopters array\n        // The address of the person or smart contract who called this function is denoted by msg.sender\n        adopters[petId] = msg.sender;\n\n        // We return the petId provided as a confirmation\n        return petId;\n    }\n\n    /**\n    * @notice Retrieve adopters array\n    * @dev Array getter only return a single value from a given key. So the following function returns the entire array.\n    * @return {array} Array of addresses with a length of 16\n    */\n    function getAdopters() public view returns (address[16]) {\n        // Since adopters is already defined we can return it\n        return adopters;\n    }\n}\n",
  "sourcePath": "/Users/alexitaylor/Projects/dapp/pet-shop-tutorial/contracts/Adoption.sol",
  "compiler": {
    "name": "solc",
    "version": "0.4.24+commit.e67f0147.Emscripten.clang"
  },
  "schemaVersion": "2.0.1",
  "updatedAt": "2018-08-02T23:23:06.131Z"
}